:100000000C94C2030C94FA030C94FA030C94FA03B4
:100010000C94FA030C94FA030C94FA030C94FA036C
:100020000C94FA030C94FA030C9408270C94C4263D
:100030000C9405280C94FA030C94FA030C94FA031C
:100040000C94FA030C94FA030C94FA030C942C28E5
:100050000C94FA030C94E1270C94FA030C94FA0321
:100060000C94FA030C94FA030C94FA030C94FA031C
:100070000C94FA030C94FA030C94FA030C94FA030C
:100080000C94FA030C94FA030C94FA030C94FA03FC
:100090000C94FA030C94FA030C94FA030C94FA03EC
:1000A0000C94FA030C94FA030C94FA030763423697
:1000B000B79BD8A71A39685618AEBAAB558C1D3CF9
:1000C000B7CC5763BD6DEDFD753EF6177231BF00BD
:1000D0000000803F08000000BE922449123EABAAF7
:1000E000AA2ABECDCCCC4C3E00000080BEABAAAA52
:1000F000AA3E00000000BF000000803F000000009A
:1001000000084178D3BB4387D1133D190E3CC3BDD2
:100110004282AD2B3E68EC8276BED98FE1A93E4C7F
:1001200080EFFFBE01C4FF7F3F000000000005011B
:100130000980A101850319012AB700150126B7001E
:10014000950175108100C0050C0901A101850419F4
:10015000012AA002150126A002950175108100C098
:1001600005010906A1018506050719E029E7150023
:1001700025019508750181020507190029EF150071
:10018000250195F0750181020508190129059505DC
:1001900075019102950175039101C00660FF096127
:1001A000A1010962150026FF00952075088102094A
:1001B00063150026FF00952075089102C00501090E
:1001C00006A101050719E029E71500250195087525
:1001D0000181029501750881010507190029FF15A4
:1001E0000026FF00950675088100050819012905FC
:1001F000950575019102950175039101C0FD377A4E
:10020000585A000004E6D6B4460200210116000048
:1002100000742FE5A3E006DE01E35D003D8889C69A
:100220005436C3174FE4DD5EF185DD96F7E920DD36
:100230000161188DE758B65D0750028C16D03983DE
:100240002D31C8D0875CB2ECEA692C287A5DFE3E7D
:1002500069EC67726DB60A2D7C0B78C74680E001A9
:100260004E3A8894A5982A8E718F638FAC2C24B453
:1002700015D6FC08356C45B083E162D63AD40BB78D
:10028000FC4F4AD08761671102AD72F1D40E828FA4
:100290002C7F76391782AF7D4AC093BA1092E06303
:1002A000EC13FF4220EAABC60EE42499D7ABC7BBE0
:1002B000906DA68B3D2FF3528E933B3C2760873A7F
:1002C0007CCD438A7C882D37733CB3784CA86BA7D0
:1002D0003D0DA1663686FA4D3DBDB0281E43197E00
:1002E00078DE742D76A5827794583BF664E27CDB49
:1002F000FCBF6F5F0A34B3CD5D4EA70D1CC9304EF5
:100300009056C1857BEE549305C1BE6FB423D45380
:100310008F05AB666B9B8A09278A02AC8BA0F4EC35
:10032000D7A0DAF38C68987E9ECBB5D5AA271FDCC0
:10033000FEF5200683EB7208AE245773407A172629
:10034000054C065F2857B4E09CD5392F14D346E9F5
:10035000582DA0D64D22DFAFCCD236767682FBB0B8
:10036000ECFA016E6607CEC50B86ACCBD50420A097
:10037000F331508762E4D8B92D8EF7D04E93E87FE1
:100380006039DF9FCEA2F8B791A37ABA911FA33745
:100390002D2DC5B12AE2D178C4DFA36848900A6147
:1003A000D312AF8D82CC17ADDE2482EBC3463AC5A3
:1003B0005BBBB47084624BC6049F8193EFED6CCB42
:1003C000989677B088DA1B7DEB50013E0678A4053D
:1003D000DD2D64B49F02750255042FCFA1AE24A475
:1003E00067166CC47D1678EAC457847B67305E96C6
:1003F000F697747A24F3422018BC1ACD12A200009A
:1004000000E5D886DEC82A5BB00001FF03DF0D00DF
:10041000005D3FDE16B1C467FB0200000000045916
:100420005A00000000000000000000000000000072
:1004300000000000000000000000000000000000BC
:10044000001E001F002000210022002300240025A0
:10045000002600270014001A000800150017001CD1
:100460000018000C00120013000400160007000919
:10047000000A000B000D000E000F002800E1001D17
:10048000001B0006001900050011001000E3002AFF
:100490000001000100010001000100010001000154
:1004A0000001000100010001000100010001000144
:1004B0000001000100010001000100010001000134
:1004C0000001000100010001000100010001000124
:1004D0000001000100010001000100010001000114
:1004E0000001000100010001000100010001000104
:1004F00000010001000100010001000100010001F4
:1005000000010001000100010001000100010001E3
:1005100000010001000100010001000100010001D3
:1005200000010001000100010001000100010001C3
:1005300000010001000100010001000100010001B3
:1005400000010001000100010001000100010001A3
:100550000001000100010001000100010001000193
:100560000001000100010001000100010001000183
:100570000001000100010001000100010001000173
:100580000001000100B205620D470D0000020002EB
:1005900000AE05620D470D000003000100B30562C7
:1005A0000D470D0000040002009805620D470D0084
:1005B0000705000100B405620D470D0000060002AA
:1005C000009A05620D470D000007000200B00562A9
:1005D0000D470D000008000100B505620D470D0034
:1005E0000012000200B605620D470D000013000264
:1005F00000B805620D470D000014000100BA056245
:100600000D470D000015000000000086065613007F
:100610000009025B00030100A0FA090400000103C5
:100620000101000921110100012240000705810399
:100630000800010904010002030000000921110162
:1006400000012222000705820320000107050303A1
:10065000200001090402000103000000092111012A
:100660000001226D00070584032000011201000231
:1006700000000008630501000001010203011C03E2
:100680007600690061006C003A00660036003400B4
:10069000630032006200330063000000180344006E
:1006A0006900640061006B00740069006B002D003C
:1006B0003400300000001803430061006C00760035
:1006C00069006E0023003000350036003300000062
:1006D0000403090400000000000000000000000006
:1006E000000000000000000000000000000000000A
:1006F00000000000000000007E0F00D4FFFFFFC7D5
:100700000000007800000000000000002A2B2800F4
:1007100000000000000000000000000000000029B0
:10072000000000002C1E3420212224342627252EF0
:10073000362D3738271E1F20212223242526333328
:10074000362E37381F0405060708090A0B0C0D0E54
:100750000F101112131415161718191A1B1C1D2F20
:100760003130232D350405060708090A0B0C0D0E40
:100770000F101112131415161718191A1B1C1D2F00
:100780003130354C11241FBECFEFDAE0DEBFCDBFD4
:1007900004B603FE18C08091FE069091FF06A0915A
:1007A0000007B09101078730904BA740B04B59F438
:1007B0001092FE061092FF06109200071092010799
:1007C000E0E0F8E3099513E0A0E0B1E0E6EDFCE637
:1007D00002C005900D92A43BB107D9F726E0A4EB27
:1007E000B3E001C01D92AE3FB207E1F70E94D029ED
:1007F0000C9445360C940000CF92DF92EF92FF925A
:10080000E091FD06EE2309F1E15088E0E802F001F5
:100810001124E354F94FC280D380E480F58020E0B6
:1008200030E0A901C701B6010E948E3218166CF49F
:100830008091BC06811102C01092BB06C701B601AF
:10084000FF90EF90DF90CF900895C12CD12C7601CE
:10085000F5CFE8EDF0E080818E7F80831092E2009A
:100860001092DA001092E100A0EEB0E08C9181606D
:100870008C9380818F77808319BCA7EDB0E08C9139
:100880008E7F8C9380818F7E808310927A0608956C
:100890002091E4003091E50095E6A9012091EC005B
:1008A000822F817020FF06C08091E80080FF06C083
:1008B00080E008952091E80022FD1AC080919F06F3
:1008C000882389F0853089F08091EB0085FD0FC089
:1008D0002091E4003091E50042175307F9F291505E
:1008E000E1F684E0089582E0089583E0089581E0D0
:1008F0000895EF92FF920F931F93CF937C018B018A
:100900000E944804C82F811117C08091E80085FD1E
:100910000BC08091E8008E778093E8000E94480425
:10092000882399F3C82F08C0F70181917F01809334
:10093000F1000150110949F78C2FCF911F910F91B0
:10094000FF90EF9008958091A10687FF13C08091DA
:10095000E80082FF06C08091E8008B778093E80072
:1009600004C080919F068111F2CF089580919F0667
:100970008823D9F38091E80080FFF8CF8091E800C8
:100980008E77ECCF982F9093E900242F762F50E0AC
:10099000891731F07091EC002091ED005091F0003A
:1009A00021FD07C09F5F973071F78093E90081E0D8
:1009B00008953091EB003E7F3093EB003091ED00D5
:1009C0003D7F3093ED003091EB0031603093EB00D0
:1009D0007093EC002093ED005093F0002091EE0016
:1009E00027FDE0CF80E00895B0E0A0E0EAEFF4E07A
:1009F0000C947B31C8EDD0E088818F7E8883E7ED51
:100A0000F0E080818160808384E082BF81E0809318
:100A10007A0688818E7F888302EE10E0F8011082CA
:100A20001092DA0081EEC82ED12CF6011082888156
:100A30008F77888388818068888388818F7D888389
:100A400019BC10929F061092A00610929E0610925A
:100A50009D0690EEE92EF12CF70180818B7F80833B
:100A600088818160888342E060E080E00E94C20467
:100A7000F60180818E7F8083F80180818160808390
:100A8000808188608083F70180818E7F8083888168
:100A900080618883CDB7DEB7E8E00C949731FC0124
:100AA0008091A7069091A80686179707A0F0611578
:100AB000710529F49091E8009E779093E80090E00A
:100AC0006115710551F4911108C08091E80082FF11
:100AD00034C080E00895BC01F2CF80919F06882346
:100AE000C1F18530C1F18091E80083FD30C0809173
:100AF000E80082FDEACF8091E80080FFE1CF80919D
:100B0000F3002091F200382F6115710519F028309B
:100B1000310558F091E02830310509F090E020913E
:100B2000E8002E772093E800CBCF81918093F100ED
:100B3000615071092F5F3F4FE7CF80919F06882357
:100B400041F0853041F08091E80083FFBECF81E025
:100B5000089582E0089583E00895089508958091AE
:100B60007C0608959C014FB7F8948091710690918E
:100B70007206A0917306B09174064FBF821B930B4F
:100B800008952FB7F8946091710670917206809164
:100B90007306909174062FBF08952FB7F894809133
:100BA000710690917206A0917306B09174062FBFE2
:100BB0000895209126032223C9F02091750627FF6E
:100BC00015C0E62FE695E695E695EE31D8F4E80FE8
:100BD000F92FF11D677021E030E001C0220F6A9506
:100BE000EAF720958281282322830895FC0132961A
:100BF00008962191621303C0DF0111971C92E81738
:100C0000F907B9F7089520916E0630916F062817FD
:100C1000390771F090936F0680936E06E0916C0631
:100C2000F0916D06309721F00084F185E02D099553
:100C3000089520916A0630916B062817390771F0E4
:100C400090936B0680936A06E0916C06F0916D06B6
:100C5000309721F00680F781E02D09950895E09105
:100C60006C06F0916D06309729F00190F081E02D2F
:100C70000995089580E00895452B39F0682381E0B7
:100C80006F3F09F080E08170089581E0FCCFDC01C6
:100C90006091640680916506962F891301C00895BE
:100CA000292F30E0F901EE0FFF1FE45AF94F408180
:100CB00051814A175B07A1F487E08A9FA0018B9FAF
:100CC000500D11244C5D594F81E0FA018483961335
:100CD000E6CF2F5F3F4F237033272093640608959C
:100CE0002F5F3F4F922F9370D8CF1092C105109273
:100CF000C005E4E2F6E08581811102C0148216820B
:100D0000379686E0EC35F807B1F70895B0E0A0E03B
:100D1000ECE8F6E00C9479318FEF9FEF4430510509
:100D200008F469C04091750641FB882780F990E07E
:100D3000880F991F42FB002700F910E0000F111FD8
:100D4000000F111F802B912B40FBCC24C0F8D12C1D
:100D50008C299D2943FB222720F9C22FE0E0DE2FBA
:100D600053E0CC0FDD1F5A95E1F78C2B9D2B44FBF4
:100D7000AA27A0F9B0E0E4E0AA0FBB1FEA95E1F7CB
:100D80008A2B9B2B45FBEE27E0F9F0E0A5E0EE0F68
:100D9000FF1FAA95E1F78E2B9F2B46FB222720F9F8
:100DA00030E0B6E0220F331FBA95E1F7822B932B88
:100DB00047FB222720F930E03695322F222737953E
:100DC0002795822B932B20917606322F3170F32EAC
:100DD000E82EF92A26952170B22EBB0CA82EBF282A
:100DE000C501BB0CAA0BBB0BFB0180839183A283C3
:100DF000B38390E080E0CDB7DEB7EAE00C949531A4
:100E000080919805909199059093230380932203F4
:100E10000895EBEBF4E090E080E069E276E240E5F3
:100E200056E22EE935E27683658350874783328721
:100E300021879487838701963D968830910599F79D
:100E4000089581152CE5920741F4209120033091FB
:100E50002103232B11F490E080E00895EFE6F0E009
:100E60008081877F8083E0E8F0E08081837F8083DA
:100E70000895CF92DF92EF92FF926B017C0120E008
:100E800030E0A9010E948E3281110AC08091800059
:100E9000837F80938000FF90EF90DF90CF90089544
:100EA00080918000886080938000C0929F04D092DF
:100EB000A004E092A104F092A20420E030E040E01F
:100EC00051E4C701B6010E94E6339B01AC0160E02A
:100ED00074E284E79BE40E9493326B017C010E94E0
:100EE0000533709387006093860020E030E048E48B
:100EF00052E4C701B6010E94E63320E030E048EC3E
:100F000052E40E9493320E94053370938D006093E7
:100F10008C00C1CF80915F02811122C01092FD062A
:100F20000E942E071092B7061092B8061092AC06D7
:100F30001092AB06EDEBF6E080E090E0A0E8BFEBAE
:100F40001182108282839383A483B58317821682D1
:100F5000389626E0ED3FF20799F781E080935F0233
:100F600008958091A70481110E948A07089580E066
:100F70000895F894E82FE295EF70F0E031A1282F62
:100F80002F7081E090E001C0880F2A95EAF7982F32
:100F90009095932391A392A1892B82A3789408958D
:100FA0009091750692FF06C0282F28712830F9F419
:100FB000877F846093FF06C0282F28712831F1F4C1
:100FC000877E84612091760620FF06C0382F387115
:100FD0003830D9F4877F816021FF06C0282F28711F
:100FE0002831D1F4877E816194FD877E0895282F72
:100FF00024712430F9F68B7F8860DCCF282F247190
:10100000243101F78B7E8861DDCF382F317131308B
:1010100019F78E7F8860E0CF282F2171213121F7C9
:101020008E7E8861E1CFCF93DF93EC01823891050A
:1010300081F1D8F58133910509F498C020F5893202
:10104000910509F488C08A9709F497C0C11521E574
:10105000D20708F0B1C0C11530E5D30708F0F9C0D8
:10106000CF3BD10508F090C0C83AD10508F0E6C0E2
:10107000C53AD10508F0DAC0C430D10520F5C13039
:10108000D10509F145C08533910509F45FC0C997C1
:10109000E9F680917506837009F029C18091760682
:1010A00083FF11C0C9E2D0E00EC0833E910599F1E3
:1010B00070F4803E910501F1823E910539F68091F0
:1010C000750682FD21C0CE01DF91CF910895863E45
:1010D000910561F1873E910571F1843E910509F01A
:1010E000B5CF8091760681FFEECF80917506C7EE71
:1010F000D0E084FD0DC0E7CF8091750680FD33C040
:101100009091760690FFDFCFC3EED0E084FFDBCF77
:10111000D0E0C0E0D8CF8091750682FDE5C0909107
:10112000760690FDE4C084FFCECFF2CF80917506A5
:1011300083FDDDCFC8CF8091750683FDDBC0909124
:10114000760691FFF0CFC4EED0E0BDCF809175065A
:1011500085FFB9CFA7CF8091750685FDCEC0809160
:10116000760683FFB0CFC9E3D0E0ADCF809175069E
:1011700086FFA9CFCAE2D0E0A6CF8091750686FF90
:10118000A2CFC1E3D0E09FCFC11540E2D40760F405
:10119000C11581E0D80708F096CFCE01805E910995
:1011A000089708F490CFB4CFC11520E4D20708F413
:1011B000AFCFDF70D06A87CFC11534E5D30778F49D
:1011C000C11543E5D40708F06DC0C11582E5D80705
:1011D00008F054C0DC2FCC27C16FD06A74CFC11582
:1011E0002AE5D20778F4C11539E5D30708F06EC0B7
:1011F000C11548E5D40708F48BCFDC2FCC27C06F8E
:10120000D06A61CFCE0190568115904208F080CF10
:101210008D2F8F710E94D00790E0982F8827882704
:101220009F719C012C2BE901D0624DCFC55AD0E0B3
:10123000CE5ADC4FC881D0E0D06445CFC85AD0E048
:10124000CC0FDD1FCB5ADC4F0990D881C02DD46460
:101250003ACF2C2F26952695237040E2249F9001AB
:1012600011248C2F8370C1E0D0E002C0CC0FDD1FB1
:101270008A95E2F7C22BD32BDD6825CFCE01837090
:10128000992721E030E002C0220F331F8A95E2F750
:10129000C695C69580E2C89FE0011124C22BD32BCE
:1012A000DC6811CFCE018370992721E030E002C0C5
:1012B000220F331F8A95E2F7C695C69540E2C49F78
:1012C000E0011124C22BD32BDA68FDCE8C2F8F7056
:1012D0000E94D00734E0D695C7953A95E1F7CF70D4
:1012E0009C2FEC01D069EFCEC2EED0E0ECCEC0EE88
:1012F000D0E0E9CEC6EED0E0E6CEC5E3D0E0E3CE66
:101300008095909177059823909377050895209183
:1013100035049091F403291302C080E0089530E071
:10132000F90153E0EE0FFF1F5A95E1F7EB50FC4F28
:101330005181561306C05081581303C05281541373
:1013400004C02F5F3F4F2770E6CF81E00895809162
:1013500035049091F403981301C008958F5F87704E
:10136000FACFA82FA77023E0969587952A95E1F7E5
:10137000FC01EE0FFF1FE80FF91FE60FF71F50E00B
:1013800040E080E0219130E00A2E02C0369527959A
:101390000A94E2F721703327042E01C0220F0A9429
:1013A000EAF7822B4F5F5F4F4330510559F708959D
:1013B000903FC9F0943080F48A30A8F4282F30E0B0
:1013C0006DED73E0A901EAE09E9F400D511D1124CF
:1013D000CA010E94B10908959C5F923020F46AED21
:1013E00073E090E0F6CF80E00895262F277091E01B
:1013F00001C0990F2A95EAF723E0769567952A951B
:10140000E1F7FB01EE0FFF1FE60FF71FE40FF51FDB
:1014100050E040E0682F70E08191DF0111979B015F
:10142000042E02C0369527950A94E2F72170219583
:101430002827292328272C934F5F5F4F43305105DE
:1014400059F70895282F862F903F79F0943070F443
:101450002A3058F4622F70E02AE0929F600D711DCF
:1014600011244DED53E00E94F50908959C5F9230E0
:10147000E0F7622F70E04AED53E0F5CF92959F7050
:10148000963091F058F4925F9F70923058F4803FFC
:1014900019F030F4883E30F481E008959A5FF4CF7B
:1014A000843FD1F380E00895883EB0F3813FD1F7C7
:1014B000F3CF982F92959F7011F0892F94E0282FE9
:1014C0002695269511F09E5F822F869509F09F5FE5
:1014D000892F08959C013A9521153F4150F5FC0153
:1014E000EE27F170BC0166277270AC01442754707E
:1014F0009C012227387094FF0EC080E1EF2B09F485
:1015000080E0672B09F08062452B09F08064232B73
:1015100089F08068089581E0EF2B09F480E0672B63
:1015200009F08260452B09F08460232B19F0886054
:10153000089580E008950E94590A823039F083307E
:1015400041F0813041F45D9A5B9808955D985B9A13
:1015500008955D9AFCCF5D98F7CF809377067093DE
:1015600079066093780680919F068430F9F4809321
:10157000E9008FEF9091E800815095FD06C095ED50
:101580009A95F1F700008111F5CF8091E80085FF71
:101590000DC050E040E063E070E087E796E00E9415
:1015A00079048091E8008E778093E8000895BC016B
:1015B00084E00E94AD0A0895BC0183E00E94AD0A58
:1015C0000895CF93DF93EC01809126038823B1F136
:1015D0008091750687FF32C060E284E08093E90065
:1015E0008FEF9091E800815095FD06C095ED9A959A
:1015F000F1F700008111F5CF8091E80085FF1BC055
:101600008091260370E050E040E0811104C050E07A
:1016100040E068E070E0CE010E9479048091E8002B
:101620008E778093E80080E2FE01ADE7B6E001909E
:101630000D928A95E1F7DF91CF91089568E081E0FE
:10164000CDCF81E08093E00080E28093D8001092BB
:10165000C9008FE19EE40197F1F700C0000087E028
:1016600090EBDC018093FE069093FF06A0930007A9
:10167000B093010788E19CE00FB6F894A895809399
:1016800060000FBE90936000FFCF019708F40895AB
:10169000EFE9FFE03197F1F700C00000F6CFCF93FC
:1016A000DF93CBE4D2E060E0CE010E94523221967B
:1016B000C11584E0D807B9F7DF91CF9108950F9352
:1016C0001F93CF93DF93142F022F843020F56230C5
:1016D00010F598E0899FE001112484E0689FB00133
:1016E0001124C60FD71FC959DE4F82E090E0442372
:1016F00011F090E080E0632F8C0F9D1F0E9452320A
:1017000083E090E0112311F081E090E0602F8C0FD6
:101710009D1F0E945232DF91CF911F910F9108952A
:101720001F93CF93DF93122F8430E0F46430D0F412
:101730004A30C0F4C42FD0E0CC0FDD1F94E1699F84
:10174000C00DD11D112490E5899FC00DD11D11241C
:10175000632FCE0187960E945232612FCE01889668
:101760000E945232DF91CF911F910895CF93C82FDD
:101770006FEF81116DE083E290E00E9452326FEFD3
:10178000C11167E284E290E00E9452326FEFC11112
:1017900063E885E290E00E945232CF9108950F9362
:1017A0001F93CF93DF9308E915E0C7E8D1E0CE019E
:1017B0000E944432F80161918F01681719F0CE013F
:1017C0000E9452322196CB3AF1E0DF0781F7DF9198
:1017D000CF911F910F9108950F931F93CF93DF9394
:1017E00008E915E0C7E8D1E0CE010E944432F801D3
:1017F00081938F012196CB3AF1E0DF07A9F7CBE87F
:10180000D5E0FE0185919491009711F0FC010995B6
:101810002C96F6E0CB31DF07A1F7DF91CF911F9136
:101820000F910895FF920F931F93CF93DF93F42EA0
:10183000843070F5623060F528E0829F80011124C9
:1018400034E0639FB0011124060F171F09591E4F82
:1018500082E090E0442311F090E080E0800F911F3F
:101860000E944432C82FD0E0DC2FCC2783E090E0E8
:10187000FF2011F081E090E0800F911F0E94443220
:101880009E01282BC901CDB7DEB7E5E00C949A3153
:1018900090E080E0F8CF0F931F93CF93DF938430D5
:1018A00030F5643020F54A3010F5C42FD0E0CC0F6D
:1018B000DD1F24E1629FC00DD11D112430E5839FFF
:1018C000C00DD11D1124CE0187960E944432082FED
:1018D00010E0102F0027CE0188960E944432980114
:1018E000282BC901DF91CF911F910F91089590E0AE
:1018F00080E0F8CF2091750530917605232BC9F44F
:10190000703F39F4603FA9F480917305909174059C
:101910000895843070F4743038F46A3050F4462FEF
:10192000672F0E944B0C08957D3F31F441E06230F7
:1019300040F090E080E008957C3FD9F76230C8F72E
:1019400040E00E94120C0895CF92DF92FF920F9315
:101950001F93CF93DF936C010091A90680915604E9
:10196000082BC7E0D0E010E0FC2EC8010C2E02C00E
:10197000959587950A94E2F780FD0CC02197A0F712
:10198000F12C8F2DDF91CF911F910F91FF90DF9060
:10199000CF900895B6018C2F0E947A0C0E941308F4
:1019A000019761F3EECFCF93DF93EC010E94A40C7B
:1019B000BE010E947A0C0E941308DF91CF91089516
:1019C000CF93DF93EC014B815C81698188810E9418
:1019D0003C06811110C08E819F81009739F00E94D2
:1019E00013080E943E0ADF91CF9108958881998162
:1019F0000E94D30CF6CF80E0F6CFA5E0B0E0E3E0A4
:101A0000FDE00C94803149835A8389819A81662351
:101A100099F0222389F00E94A40C182F682F898145
:101A20009A810E94220A69817A81812F0E947A0C10
:101A30002596E3E00C949C310E94D809182FF3CF2F
:101A4000FC01262F86819781009739F440815181CE
:101A50006281738184810E94FD0C089583E290E08D
:101A60000E9444328D3089F484E290E00E94443236
:101A7000873259F485E290E00E94443291E0833845
:101A800009F090E0892F8170089580E0FCCFDA01A1
:101A90009C012E5F3F4FF90145915491F901259129
:101AA0003491A217B30758F0FC01349685919491B4
:101AB0000E9424320E94CF0B90E080E008958FEFC7
:101AC0009FEF0895DB01FC01329625913491421776
:101AD000530758F0FC01349665917491A901CD012A
:101AE0000E94243290E080E008958FEF9FEF0895E8
:101AF0009B01883070F49AE0899FB00111246555EC
:101B00007E4F4AE050E0C9010E94343290E080E00C
:101B100008958FEF9FEF0895AAE0B0E0E2E9FDE0BD
:101B20000C9481319C0137552F3F310509F068F441
:101B3000BE016F5F7F4F0E94780D892B31F489853C
:101B40009A852A96E2E00C949D318091B00590919F
:101B5000B105F7CFAAE0B0E0E0EBFDE00C947B31FB
:101B6000E3E2F5E080E5DF011D928A95E9F7E4E222
:101B7000F6E088E3DF011D928A95E9F783E2C82E3B
:101B800085E0D82E7F010BEF11E0F701D182C082F2
:101B90004AE050E0B801CE0101960E94343288E05C
:101BA000FE013196D60101900D928A95E1F7898563
:101BB0009A85D70113969C938E931297BAE0CB0E19
:101BC000D11CE7E0EE0EF11C065F1F4F0B34F2E074
:101BD0001F07D9F62A96E8E00C9497318554990BA3
:101BE000BC01990F880B990B0E94363320E030E03E
:101BF00040E451E40E9493329B01AC0160E070E04C
:101C000080E090E40E94533420E030E04CED53E457
:101C10000E94E6330895A8E0B0E0E1E1FEE00C9414
:101C200077318E010F5F1F4F88E0F80111928A957E
:101C3000E9F793E8E92E93E0F92E6801AA24A3942A
:101C4000B12CF70181917F018F3F09F446C0F894D0
:101C5000E82FE295EF70F0E021A18F70A50102C09E
:101C6000440F551F8A95E2F7CA01922F982B91A332
:101C700092A18095892382A3789400C0E7E8F3E0DD
:101C800021E030E0912C812C41914F3F09F467C055
:101C9000A42FA295AF70B0E090968C9190E04F7019
:101CA00002C0959587954A95E2F780FD58C0C90115
:101CB000882A992A220F331F53E0E139F50721F7CB
:101CC000F701319780818F3F11F00E94B90780EAB8
:101CD0008A95F1F7F60191828082F2E0CF0ED11C55
:101CE00047E8E41643E0F40609F0ABCF48E050E0E3
:101CF000B8018AE594E00E941732892B99F188E0B7
:101D0000F801AAE5B4E001900D928A95E1F781E02F
:101D1000809359040E94CD059093580480935704F2
:101D200080915704909158040E94B2050597F0F0F5
:101D300048E050E06AE574E086E994E00E941732DA
:101D4000892BC9F088E0EAE5F4E0A6E9B4E0019067
:101D50000D928A95E1F781E01092590408C090E055
:101D600080E0A6CF809159048111DACF80E02896D7
:101D7000ECE00C94933180E0EFCFCF93C0917705E6
:101D80008091AA06C82BC093B60340E250E066E3F8
:101D900074E086EB93E00E941732892B11F180E208
:101DA000E6EBF3E0A6E3B4E001900D928A95E1F74B
:101DB000E0916C06F0916D06309799F080912603C2
:101DC000882349F08091750687FF05C0C093B7034B
:101DD00086E08093B6030280F381E02D86EB93E0EA
:101DE0000995CF910895CF93DF93EC01E985FA85AA
:101DF000309719F06B857C8509958B81982F90958C
:101E00008091AA0689238093AA060E94BD0E85E0D0
:101E1000FE0111928A95E9F7DF91CF910895CF9352
:101E2000DF93EC018C8181FD12C082608C838091F4
:101E3000AA069B81892B8093AA060E94BD0EEF8182
:101E4000F885309721F06B857C85CE01099510923D
:101E50006906109268068C8180FD03C0CE010E9445
:101E6000F30EDF91CF91089580912403877F8093B3
:101E700024039091AA069D7F9093AA0684FF08C030
:101E80008F7E80932403809177058260809377050D
:101E90008091240385FF08C08F7D80932403809167
:101EA00077058062809377050E94BD0E089590E0CB
:101EB00080E00E94190690E080E00E9403061092E4
:101EC000AA060E94BD0E0895CF93C82F0E949B0AB8
:101ED000C093A9060E94570FCF9108958091A9063B
:101EE000982F9670963021F488600E94640F0895B0
:101EF000877FFBCF21E030E001C0220F8A95EAF70F
:101F000020958091A90682230E94640F089521E004
:101F100030E001C0220F8A95EAF78091A906822B52
:101F20000E94640F0895809356040E94570F0895ED
:101F30001092770580912603E8EBF3E0882361F0A7
:101F40008091750687FF08C08EE1DF011D928A959A
:101F5000E9F70E94570F089586E0F7CFAAE2B0E0B4
:101F6000E4EBFFE00C94803181EA96E02091F100EF
:101F7000DC012D93CD01B6E0893A9B07B9F780913A
:101F8000A206833009F472C0B8F4813009F449C064
:101F9000823009F4B3C08091E80083FF96C280913B
:101FA000A1069091A2069A3008F08FC2E92FF0E0C6
:101FB000E95BF94C0C94DE318A3009F48EC08B3029
:101FC00009F471C0893039F78091A106813219F77F
:101FD0008091A5069091A606009711F00297D9F678
:101FE0008091E800877F8093E8008091E80082FF7D
:101FF00038C09091F3008091F200029731F4809103
:10200000F100813011F0863021F48091F10080934D
:102010007C068091E8008B778093E8000E94A304FF
:10202000BACF8091A106813A09F0B5CF8091E8003E
:10203000877F8093E8008091A5069091A606892B62
:1020400061F460E28DE796E070E00E944F058091B8
:10205000E8008B778093E8009ECF60E090E080E01E
:10206000F3CF80919F068111C0CF95CF8091A106BB
:10207000813A09F090CF8091A5069091A606892B10
:1020800009F089CF8091E800877F8093E8008091F4
:10209000E80080FFFCCF809126038093F1008091BF
:1020A000E8008E77B9CF8091A106813209F073CF15
:1020B0008091A5069091A606892B09F06CCF80919E
:1020C000E800877F8093E8000E94A3048091A30624
:1020D000809326030E94980F5ECF8091A1068132E3
:1020E00009F059CF8091E800877F8093E8000E9433
:1020F000A3048091A40680937B064DCF8091A10616
:10210000813A09F048CF8091E800877F8093E8000A
:102110008091E80080FFFCCF80917B06BECF8038A5
:1021200099F0823809F0D1C18091A5068F7087306F
:1021300008F0CBC18093E9008091EB0085FB8827F4
:1021400080F91092E90006C080919D0690919E064C
:10215000911182609091E800977F9093E8008093BE
:10216000F1001092F1008091E8008E77AAC18823D7
:1021700009F498C1823009F0A8C18091A3068111A9
:102180009BC18091A5068F702FEF280F263008F095
:102190009CC18093E9002091EB0020FF8DC193301A
:1021A00031F48091EB0080628093EB0085C19091C7
:1021B000EB0090619093EB0021E030E001C0220F32
:1021C0008A95EAF72093EA001092EA008091EB00EA
:1021D0008860EACF811179C11091A3061F778091A1
:1021E000E3008078812B8093E3008091E800877F73
:1021F0008093E8000E94A3048091E80080FFFCCF58
:102200008091E30080688093E30082E0111183E015
:1022100080939F065AC18058823008F056C12091A1
:10222000A3063091A4062C3DE3E03E07A1F583E030
:102230008A838AE289834FB7F894DE01139620E0FF
:102240003EE051E2E32FF0E050935700E49120FF8D
:1022500003C0E295EF703F5FEF708E2F90E0EA30A1
:10226000C0F0C7968D939D932F5F243159F74FBFD0
:102270008091E800877F8093E8006AE270E0CE01F9
:1022800001960E944F058091E8008B778093E800CB
:102290001CC1C096E7CF8091A5069091A606432F5A
:1022A00055274330510509F44AC078F541305105AE
:1022B00009F485C08BE590E0E1E1F6E0423051059C
:1022C00009F003C12091E800277F2093E8002091C6
:1022D000A7063091A8068217930708F49C0140E0F6
:1022E0002115310509F070C041116EC08091E800E0
:1022F00082FDC9CF80919F06882329F2853019F28B
:102300008091E80083FFF2CFBECF4132510509F43E
:1023100047C04232510509F0D8C08330910508F01A
:10232000D4C0FC01EE0FFF1FE855FC4F0190F08177
:10233000E02D8B559C4FDC018C9190E01DC0332724
:1023400021303105E9F02115310579F022303105D0
:10235000F9F02330310509F0B8C0EEE7F6E0E4917A
:102360008E2F90E0EEE7F6E007C0E0EDF6E0E491B6
:102370008E2F90E0E0EDF6E0009709F4A6C0A2CF22
:10238000E6EBF6E0E4918E2F90E0E6EBF6E0F4CF9A
:10239000ECE9F6E0E4918E2F90E0ECE9F6E0ECCF8A
:1023A0008330910508F091C0880F991FFC01E25518
:1023B000FC4F0190F081E02D89E090E083CF82E135
:1023C00090E0ECE6F6E07ECF80919F06882309F44A
:1023D0005ACF853009F457CF8091E80083FD53CF61
:1023E0008091E80082FD82CF8091E80080FF78CF65
:1023F0009091F3008091F2002115310519F0883099
:10240000910550F041E0089709F040E08091E80024
:102410008E778093E80064CF44914093F100319629
:10242000215031090196E8CF803809F04EC08091E3
:10243000E800877F8093E8008091A0068093F100F8
:1024400092CE811142C01091A3061230F0F5809116
:10245000E800877F8093E8001093A0060E94A30401
:10246000112311F084E005C08091E30087FDFACFCD
:1024700081E080939F0642E061EC81E00E94C2040B
:1024800042E261EC84E00E94C20442E261EC82E03C
:102490000E94C20442E260EC83E00E94C204809188
:1024A0009F0613C08091A306813079F481E09330B8
:1024B00009F080E080939E061092E9008091E80088
:1024C000877F8093E8000E94A3048091E80083FF47
:1024D0000AC08091E800877F8093E8008091EB003C
:1024E00080628093EB00AA96E3E00C949C31CF933A
:1024F000E8E9F5E0128E138E8FEA90E091838083F5
:1025000085E0848F28E833E13383228322E330E0BF
:10251000378B268B28EC30E0318F208F158E178E6D
:10252000168E20E530E031A320A382A30E94CF0BBA
:102530000E94980F1092760610927506E6E7F6E074
:1025400080818460808360917506C82F84E090E06C
:102550000E9452326C2F82E290E00E9452320E941E
:10256000EC0BCF910895A4E1B0E0E9EBF2E10C941B
:102570007431A0902003B090210381E090E090930B
:1025800021038093200381E2882E84E0982E91E439
:10259000C92E94E0D92E10E0760100E015C0F301B9
:1025A00025913491452D602F812F0E94900B82E060
:1025B000680E711C5394EAE05E12F1CFF4E1EF0E65
:1025C000F11C0F5F043019F03701512CE8CF740172
:1025D00000E0F7012591349141E0602F812F0E94A6
:1025E0005F0BF70132962591349140E0602F812FE7
:1025F0000E945F0B84E0E80EF11C013009F044C03A
:10260000E8E08E0E911C1F5FF0E5CF0ED11C143058
:1026100009F0C2CF0E9477121A8219821C821B8293
:102620001E821D8218861F8288EC90E09A87898717
:102630000BEA11E04AE050E0B801CE0101960E9499
:102640007632065F1F4F0B3F81E0180799F77E0136
:10265000EBE0EE0EF11C8AE0F70111928A95E9F7A2
:102660004AE050E0B801C7010E947632065F1F4F72
:102670000B34F2E01F07A1F7B0922103A0922003D0
:102680006496EFE00C94903101E0A3CF80E00E94CB
:10269000B60B60E086E290E00E9452320E94B312D4
:1026A0000E944F0B81E00E94B60B0895CF92DF92FB
:1026B000EF92FF928FEF9FEF4430510508F46EC008
:1026C000FB01C080D180E280F3800E94980F60916E
:1026D0007506C0FA60F9D701C601B695A79597951A
:1026E000879580FB61F9D701C60132E0B695A795C1
:1026F000979587953A95D1F780FB62F9D701C60186
:1027000043E0B695A795979587954A95D1F780FBB5
:1027100063F9D701C60154E0B695A79597958795BB
:102720005A95D1F780FB64F9D701C60175E0B695DB
:10273000A795979587957A95D1F780FB65F9D7018D
:10274000C601E6E0B695A79597958795EA95D1F7E6
:1027500080FB66F9D701C601F7E0B695A795979576
:102760008795FA95D1F780FB67F96093750680919C
:102770007606D0FA80F9D1FACC24C0F8F82EC0FA47
:10278000F1F8F092760684E090E00E9452326F2DCC
:1027900082E290E00E94523290E080E0FF90EF9061
:1027A000DF90CF900895882341F080959091AA06FC
:1027B00089238093AA060E94BD0E0895882339F0CC
:1027C0009091AA06982B9093AA060E94BD0E089598
:1027D000882321F00E9480090E94BD0E089588235D
:1027E00039F090917705982B909377050E94BD0E54
:1027F0000895882351F19CEF980F913A40F4682F87
:1028000086EB93E00E94D9050E94BD0E089590E2E8
:10281000980F983050F4877091E001C0990F8A9515
:10282000EAF7892F0E948009EFCF9BE5980F93303C
:1028300028F490E080E00E9419060895885A8731B4
:1028400020F490E080E00E9403060895CF93DF9388
:10285000EC010E94F913CE010E946A0A9E01205EDB
:1028600031092830310510F0CD2B29F40E94E813EE
:10287000DF91CF9108950E94D313FACFCF93C82F41
:10288000882309F445C08CEF8C0F813A08F068C0AA
:10289000809126038823F1F18091750687FF3AC065
:1028A000EC2FE695E695E695F0E0EA54FC4F828140
:1028B00090E04C2F477021E030E002C0220F331F20
:1028C0004A95E2F782239323892B61F06C2F86EBE4
:1028D00093E00E94D9050E94BD0E26C08091750626
:1028E00087FF26C0AC2FA695A695A695B0E0AA5462
:1028F000BC4FC77021E030E001C0220FCA95EAF753
:1029000012968C911297822B12968C930E94BD0E78
:10291000CF910895E8EBF3E08EEB93E02191C2179D
:10292000A9F28E179F07D1F7809126038111D6CF88
:10293000A8EBB3E0EFEF80E09D91C91739F3EF3FCB
:1029400019F4911101C0E82F8F5F8630A9F7EF3F8E
:10295000E9F20E2E000CFF0BEA54FC4FC283D6CFD7
:1029600080E28C0F883068F4C77021E030E001C04D
:10297000220FCA95EAF780917705822B809377051D
:10298000C5CFEBE5EC0FE33040F4F0E0EE5AFC4F3E
:10299000808190E00E941906BBCFC85AC73108F069
:1029A000B7CFEC2FF0E0EE0FFF1FEB5AFC4F80810A
:1029B00091810E940306ACCF1F93CF93DF93182F12
:1029C000C091B805D091B905893321F0C091B60501
:1029D000D091B705812F0E943E14209739F4812FA2
:1029E0000E94F913DF91CF911F9108958FE99FE025
:1029F0000197F1F700C000002197EFCFB0E0A0E011
:102A0000E4E0F5E10C947931EC018AE0A82E28810C
:102A1000222309F48FC02130C9F599818A81913030
:102A200021F422960E94DC1405C0923029F42296EB
:102A30000E943E142196EBCF933021F422960E94FF
:102A4000F913F8CF943011F02196F4CF229630E0AC
:102A500020E0AE014F5F5F4F8053990B8A309105A4
:102A600050F02150310930F38FE99FE00197F1F7E1
:102A700000C00000F6CFA29EB001A39E700D1124ED
:102A80009C01260F371F8981EA01E3CFE22FF0E096
:102A9000EC5FF84FB490822F86958695869590E0EE
:102AA000FC01EC50F94FE4902770F12C022E02C08B
:102AB000F594E7940A94E2F731E0E322FF24FC0165
:102AC000EC51F94FC490D12C022E02C0D594C7947A
:102AD0000A94E2F731E0C322DD24FC01EC52F94F05
:102AE000049110E002C0159507952A95E2F7017050
:102AF0001127E114F10419F081EE0E943E14C11473
:102B0000D10419F086EE0E943E148B2D0E94DC1435
:102B1000C114D10419F086EE0E94F913E114F104F6
:102B200019F081EE0E94F9130115110509F482CF05
:102B30008CE278CFCDB7DEB7EAE00C949531CF9335
:102B4000DF93EC010E946A0A9E01205E3109283061
:102B5000310510F0209741F40E94EF138C2F0E9452
:102B60003E14DF91CF9108950E94DE13F7CF6623C4
:102B700029F02091AA0622602093AA069C013056D3
:102B8000211540E2340720F0305E2115304108F471
:102B900099270E949F150895B0E0A0E0E2EDF5E1CD
:102BA0000C947C317C018B01D42E8091240382FF14
:102BB0008CC0C091BE05D091BF05CE15DF0521F0B8
:102BC000E114F10409F081C0809124038B7F80938C
:102BD000240381FD73C08091BC059091BD05A801BF
:102BE000481B590B81E020912203309123034217A7
:102BF000530708F480E08170F82E80912403F0FAE6
:102C000081F980932403FE0183E0F695E7958A9588
:102C1000E1F7EE71FF27E858FA4F20813181AE01CC
:102C20004F70552781E090E002C0880F991F4A95A8
:102C3000E2F7FF2009F444C0822B932B9183808319
:102C40008091770581FF08C0809124038061809383
:102C5000240382E00E9480098091770585FF08C0E7
:102C60008091240380628093240380E20E94800983
:102C70006F2DCE010E94B715DD2031F08091B30594
:102C800085FF02C086FF3BC08091B6059091B705D5
:102C90000E94450B8091BE059091BF059C01305666
:102CA000211540E2340720F0305E2115304108F450
:102CB00099270E9426140E94340F1DC081E09BCFEB
:102CC0008095909582239323B9CFC70199279701C7
:102CD0003056211540E2340728F0305E211530418E
:102CE00008F0C7010E9426148091BE059091BF058F
:102CF0008E159F0501F31093BD050093BC05CDB75C
:102D0000DEB7E7E00C94983190E080E00E944C320E
:102D1000883E9E4F19F40E942E0D089580E008957C
:102D200068EE7EEF90E080E00E94703260E082E02A
:102D300090E00E94523260E083E090E00E945232C4
:102D40001092560460E084E090E00E94523264E009
:102D500082E290E00E94523260E085E090E00E94C2
:102D6000523260E086E090E00E9452326FEF87E0DE
:102D700090E00E94523240E050E0BA0188E090E0DA
:102D80000E94643260E08DE090E00E94523240E0A8
:102D900050E0BA0188E190E00E94643260E087E18F
:102DA00090E00E94523240E050E0BA018CE190E0A5
:102DB0000E94643270E060E080E290E00E94703235
:102DC00040E050E0BA0188E190E00E94643280E087
:102DD0000E94B60B0E94461340E050E0BA018FE01B
:102DE00090E00E94643240E050E0BA0183E190E05C
:102DF0000E94643208958091B906811141C00E94F9
:102E00008416811102C00E94901687E090E00E9413
:102E100044328093BA06EDEBF6E080E090E0A0E863
:102E2000BFEB1182108282839383A483B5831782C0
:102E30001682389626E0ED3FF20799F78091B906A1
:102E400081110CC00E942E07279A82E08093800097
:102E50008AE18093810081E08093B9060E948A070D
:102E60008091BA0680FF06C063E070E087E292E0DE
:102E70000E94F0170E94CD059093AE068093AD0698
:102E80000895B0E0A0E0E7E4F7E10C9476314B015F
:102E90005C017A018091BA0680FF81C08091B906F9
:102EA000811102C00E94FB1620E030E0A901C5019B
:102EB000B4010E948E3287FF04C0B7FAB094B7F80D
:102EC000B0947090FD06872D8150990B6C01EC0138
:102ED000CF3FDC0709F04DC081E0870D893008F451
:102EE0007CC088E08093FD068DEB96E028E0FC0135
:102EF0003896DC0101900D922A95E1F7089626E0BC
:102F0000853F920799F781E080939E048093B806ED
:102F1000C091FD06C150DD0B0E94CD05FE0123E0EE
:102F2000EE0FFF1F2A95E1F7E354F94F9183808359
:102F300082829382A482B582F782E6820E94CD05C6
:102F400080915F02882359F180916F00886080939F
:102F50006F00809180008860809380008091B80627
:102F6000882321F00E94FC030E94390710925F021F
:102F700016C08E0133E0000F111F3A95E1F703549C
:102F8000194FA5019401F8016281738184819581B3
:102F90000E948E3281111FC0CC15DD052CF0CDB7FB
:102FA000DEB7EDE00C949231219688E0F801389676
:102FB000D80101900D928A95E1F70E94CD05F801A4
:102FC0009187808782869386A486B586F786E68673
:102FD000085F1F4FE1CF21977BCF8093FD0693CFF2
:102FE000CF92DF92EF92FF92CF93DF93EC017B01C0
:102FF0008091BA0680FD09C00E948A07DF91CF91B7
:10300000FF90EF90DF90CF9008958091B9068111E5
:1030100002C00E94FB168091B80681110E948A07A7
:1030200081E08093B7061092B606D093B506C093A0
:10303000B406F092B306E092B2061092B106109276
:10304000B0061092AF066C817D818E819F810E94B7
:1030500005339B01A0E6BAEE0E94EB31C12C2EE1B4
:10306000D22EE12CF12CA70196010E94BC3168817F
:1030700079818A819B81A9010E9441170E94CD0517
:103080009093AE068093AD06E091B406F091B5063C
:103090008091AF069091B00633E0880F991F3A9562
:1030A000E1F7E80FF91F64817581868197810E949D
:1030B00005339B01A0E6BAEE0E94EB31A701960111
:1030C0000E94BC313093AC062093AB0697CF81E0D1
:1030D0008093A80468E070E080EE92E00E94F01710
:1030E00008950E94B1071092A70468E070E080EA9A
:1030F00092E00E94F017089581E08093A70468E0B1
:1031000070E080E692E00E94F017089562E070E0BF
:103110008FE492E00E94F0172FEF81EE94E02150AF
:1031200080409040E1F700C000000E948A07609153
:10313000BA066E7F6093BA0687E090E00E94523232
:1031400008956091BA0661606093BA0687E090E0E6
:103150000E94523262E070E08FE392E00E94F0172A
:103160000895CF93DF930E94980F0E94B1070E94A9
:10317000CD05EC0163E070E080E091E00E94F01783
:10318000CE010E94B2058A3F910528F00E948A076D
:10319000DF91CF9108958FE99FE00197F1F700C08B
:1031A0000000EECF0E94B11888E19CE00FB6F894C1
:1031B000A895809360000FBE90936000FFCF0E949F
:1031C000EE0D4FEF5FEF0E9441170895B0E0A0E0D1
:1031D000ECEEF8E10C947B316B017C0120E030E0F7
:1031E000A9010E948E3287FF04C0F7FAF094F7F825
:1031F000F0948091B806882309F458C08091B906EC
:10320000811102C00E94FB160DEB16E0C7E0D0E072
:10321000A7019601F80162AD73AD84AD95AD0E9432
:103220008E3281113CC083E0CC0FDD1F8A95E1F71F
:10323000C354D94F1982188280E090E0A0E8BFEB18
:103240008A839B83AC83BD831F821E82AC01BD0138
:10325000F6E0C53FDF0789F4C1E0C0939E0480918A
:10326000FD0681508093FD06811120C00E942E072B
:10327000C0935F021092B80619C088E0FE0138962C
:10328000DE0101900D928A95E1F7198618864A872A
:103290005B876C877D871F861E862896D9CF2197EE
:1032A00008501109CF3FDC0709F0B2CFCDB7DEB728
:1032B000E8E00C949731A3E2B0E0E1E6F9E10C9488
:1032C00078317C01DC0113964D915C911497119635
:1032D0006C9111978C910E943C068111E1C061E0D4
:1032E000C7010E94200D8C01F70182818823E1F043
:1032F00080916806909169060097B1F00817190748
:1033000099F0FDE08F9FC0011124FC01E154FB4FB7
:1033100020812460208385549B4FDC010D931C93F6
:103320000E940F0F1092AA06F7018281882309F4E8
:10333000C5C5980122513F452031310508F0ACC583
:103340008FEF93E00E9444328111AAC06EEEF62EF8
:10335000F00E0BE412E0F11036C019821A821B82C3
:103360001C82BB24BA9478012FEFE21AF20AC8013A
:103370000E94443289831A82882309F491C08130E3
:1033800009F07FC0680142E0C40ED11CC7010E9451
:103390004432E82E8A83882309F482C0C6010E9441
:1033A0004432F82E8FEF8E0D8330D8F4680153E04D
:1033B000C50ED11CFB82FF2021F0CE0101960E9498
:1033C000FE148601D0CF0115F4E01F0709F468C090
:1033D000C8010E944432811101C0FA940F5F1F4F4F
:1033E000BACF8BEF8E0D833030F5C8010396FB8288
:1033F0006C01FF2031F36801A4E0CA0ED11C0E94C9
:1034000044328C838823E9F28B819C818130BFEF29
:103410009B0710F0982F8827E6E0EE1631F0F7E0D2
:10342000EF1631F00E941826CCCF0E94F225C9CFAA
:103430000E947925C6CF24E0E212C3CF680144E0A0
:10344000C40ED11CC80103960E944432FF2041F1F2
:10345000882331F18150990BB89E9001B99E300DAF
:103460001124AF2DA150BB0BCD01820F931F0197EB
:1034700008F4A7CFEFE9FFE03197F1F700C00000B3
:10348000F6CFCE0101960E94FE1467019ACF81E02B
:103490000E94870F03C081E00E947A0F0E946E0F86
:1034A000A396EBE00C94943182E0F2CF82E0F4CF6B
:1034B000823009F046C58091B5049091B604892BFD
:1034C00009F43FC52DE02C9DC0012D9D900D1124C8
:1034D000FC01E154FB4F20812E7F208385549B4FBC
:1034E0000E940F0F2EC50D319CE5190791F00E318A
:1034F0004CE5140791F10F31ACE51A0709F021C52D
:10350000882359F18091BA0680FFD5C40E9486189D
:10351000C7CF0B32FCE51F07A9F4D70112968C9197
:10352000811119C50D32BCE51B07E1F5F701828158
:10353000882309F463C01092A80468E070E088E36F
:1035400091E00FC50632BCE51B0739F4F701828113
:10355000882341F10E947C18A3CF0732FCE51F07A6
:1035600041F4D70112968C91882351F10E94711871
:1035700097CF0832BCE51B0749F4F7018281882305
:10358000E9F18091A7048111F1CFE4CF0C32FCE581
:103590001F0741F6D70112968C91882379F10E947A
:1035A00067187ECF0E32FCE51F0751F4D701129643
:1035B0008C91882319F18091A8048111BCCFEFCFA1
:1035C0000932BCE51B07D1F4F70182818823B1F0F1
:1035D0000E94B1072091180230E02F5F3F4F237007
:1035E00033272093180248E2429FC001439F900D69
:1035F000112465E070E088589E4FB3C42091A70461
:10360000211160C08091A80481115CC0C801975548
:103610008F3F910509F008F418C18091B30580FF30
:1036200039C00E94CD056C01D70112968C91882378
:1036300009F466C18091240382FF08C024E834E0C5
:1036400040E0B60190E080E00E94CC150B31BCE573
:103650001B0709F447C10C31ECE51E0709F448C10A
:1036600090912403892F8E7F90FF81600A31FCE5C1
:103670001F0709F440C1C8019056811520E2920746
:1036800028F0905E8115904108F048C11092BF0566
:103690001092BE05D70112969C91992309F421C27C
:1036A0000E3DBCE51B0709F418C2073AEDE51E07FD
:1036B00009F415C201151C4509F013C20E94B11886
:1036C0000E94210BD70112963C91332309F44AC082
:1036D000003E110561F40E94B10781E08093D70399
:1036E0001092D6031092810410927D04D9CE023E2E
:1036F000110571F40E94B1078091D703882319F056
:1037000081E08093D6031092D70310928104C8CE33
:10371000033E110591F48091D603882319F10E948C
:10372000B1071092D70381E08093810410927E0448
:103730001092800410927F04B3CE80912502909164
:1037400026020A970235110541F00135110551F4A1
:1037500080912502909126020A96909326028093EA
:1037600025029ECE8091180281110EC0F701418181
:1037700084E090E0841B9109D080F0E1DF0E4CE002
:10378000849FD00C112411C0813051F5D7011196BE
:103790004C91119784E090E0841B9109D82EDD0CA8
:1037A000DD0CD80E8C918D5CD80E332309F445C006
:1037B000222319F08D2D0E94DF188091D7038823D2
:1037C00051F080917D04E82FF0E0E359FB4FD08267
:1037D0008F5F80937D040F3F110508F017CF60CEF7
:1037E000823059F4F701418184E090E0841B910913
:1037F000D080F3E3DF0E47E0C3CF4CE0D42E83301C
:10380000A1F683E2E7E2F3E0DE01119601900D926A
:103810008A95E1F7D701EC91EC0FFD2FF11D119680
:103820004C9184E090E0841B9109D084BCE08B9F94
:10383000D00C1124E9E0DE0EB8CF222361F28D2DE9
:103840000E94EE0D0E94E618C6CF5801BB242DE061
:10385000029FF0011124AF0145545B4F6A01D7016B
:1038600012968C91E154FB4F908180FB90F99083EC
:10387000882381F10E94CD05909383048093820474
:10388000F60182818F5F82838091AA0690917705ED
:10389000892B83830580F681E02D309731F0D601A6
:1038A0001B966D917C91C60109958DE08A9DF00172
:1038B0008B9DF00D1124E554FB4F848181FF07C0DF
:1038C00090E080E09093680680936906A6CE902FE2
:1038D000812FF8CFFA01848181FF9FCECA010E9417
:1038E000F30E9BCE80912403816080932403C3CE8A
:1038F000809124038E7F809324030E94340FBBCEDB
:10390000809124038F7E013E110531F0053E1105A3
:10391000C1F4809124038F7D80932403809124033C
:1039200080FFB8CEF70182810832110528F50E31EB
:10393000110508F067C00430110580F58111A6CE8D
:10394000A9CEC8019056811550E2950720F0905EEF
:103950008115904118F78091240382FF9BCE8091BE
:10396000B50581FD97CE24E834E040E0B60190E053
:1039700080E00E94CC158ECE0933110558F40D322B
:10398000110518F40B321105C9F69091B30592FD9B
:10399000D5CF08C004361105C1F3D0CF9091B3053F
:1039A00094FDCCCF882309F491C0809177058D7F59
:1039B00071F11092BF051092BE058091B30581FD93
:1039C00026C0F80133E0F695E7953A95E1F7EE71F8
:1039D000FF27E858FA4F98012F70332781E090E0D5
:1039E00002C0880F991F2A95E2F780959095208153
:1039F0003181822393239183808360E0C8010E94F8
:103A0000B7154ECD9091B30593FD98CFCBCF88E0FD
:103A1000F701A4E8B4E001900D928A95E1F71092C5
:103A2000860410928804109287048091BE059091BC
:103A3000BF0508171907C1F52091B30525FF34C04C
:103A40003091240331FF02C026FF2EC02091BC0517
:103A50003091BD055601A21AB30AB7010E948C0D20
:103A6000A816B90608F58091770581FF08C08091F6
:103A7000240380618093240382E00E948009809166
:103A8000770585FF08C0809124038062809324031A
:103A900080E20E94800960912403669561708091A4
:103AA000BE059091BF05ABCF90917705809124031F
:103AB00091FB81F91093BF050093BE05D092BD051F
:103AC000C092BC05846080932403EACC970140E057
:103AD000B601C8010E94CC15E3CC0E9490160E944A
:103AE000D218D70116962D913C9121153105D1F0B0
:103AF000C9010E941308182F092FD7011296DC90D4
:103B000012971596CC90C2942FE0C22292959F7086
:103B1000A92EB12C9C3008F050C0F501EF5AF94C99
:103B20000C94DE31F70100811181992369F0C801FD
:103B30000E94A40CD82E682FC8010E94220AB80146
:103B40008D2D0E947A0CD5CFC8010E94D809D82E9D
:103B5000F6CFB02FBF709B2E802F807F19F09294EC
:103B600090EF9922DD20C9F0992069F080E2810F61
:103B7000883010F011110BC080917705982A90922F
:103B800077050E94BD0E812F0E943E1416C08091C1
:103B9000AA06982A9092AA06F4CF812F0E94F913C0
:103BA000992059F080E2810F883010F011111DC06A
:103BB000892D0E9480090E94BD0E28E0A21AB1083A
:103BC00044E0A416B10410F40E942F06812F902F18
:103BD0000E943E0A81113AC11092D9031092D80373
:103BE00060E0C7010E94200D5BCC90948091AA06F2
:103BF00098229092AA06DFCFE02FEF709E2E802FA2
:103C0000807F803219F0929480EF9822113081F4F5
:103C10008091BA05DD2031F08C1578F2892D0E9453
:103C2000EF13CBCFC81648F6892D0E94E813C5CFF5
:103C3000DD20E9F0CC2091F320E0D7014C911196E2
:103C40005C91119712966C91129713967C91139731
:103C500014968C910E94FD0C8091B50581FD93CF47
:103C6000F701858180FF8FCF8F708583D7CFCC20E0
:103C7000D9F28091B8059091B905193321F080915E
:103C8000B6059091B7050E94450B812F0E94F9134C
:103C900094CF802F86958695837069F0813009F0E6
:103CA0008CCF812F902F9370D11002C090E080E0D4
:103CB0000E94030682CF812F902F9370D11002C0F3
:103CC00090E080E00E94190678CF802F837091F5F4
:103CD000D11073CF412F429546954770440F440F42
:103CE000812F8F70042E01C0880F0A94EAF7212FCC
:103CF000207114FF07C02FE030E001C0220F4A9569
:103D0000EAF72095302F369536953370323069F0CA
:103D100050F440915604313029F0822B84230E94C4
:103D2000930F4BCF842B822BFACF282B80915604F4
:103D30008227F5CF8695DD2011F0802F81708823B2
:103D400009F43BCF412F429546954770440F440FED
:103D5000812F8F70042E01C0880F0A94EAF7212F5B
:103D6000207114FF07C02FE030E001C0220F4A95F8
:103D7000EAF72095302F369536953370323069F05A
:103D800050F44091A906313029F0822B84230E94FF
:103D9000640F13CF842B822BFACF282B8091A90696
:103DA0008227F5CFF02FFF709F2EDD2029F08F2F77
:103DB0000E94870F812F33CF812F0E94E813892D16
:103DC0000E947A0FFACE113F81F148F4103FB1F012
:103DD000DD20B9F1C110D7CE802F8F712AC0123FDC
:103DE00059F1133FA9F780E0DD2089F281E0902F9F
:103DF0009F7101C0880F9A95EAF7C9CF8091BA05E3
:103E0000DD2079F0C81608F0D8CE202F2F7181E080
:103E100090E001C0880F2A95EAF79091A9068927BA
:103E2000B6CF8C1508F4C9CEF0CF802F8F71DD206E
:103E300039F20E94870FC1CE802F8F71DD20C9F328
:103E4000BFCFC11016CF802F8F71BACFDD2019F0F0
:103E5000C110C2CEC5CEC110BFCE20E0D7014C915B
:103E600011965C91119712966C91129713967C9112
:103E7000139714968C910E94FD0C8091B50583FFD9
:103E8000ABCE8091D8039091D903029709F0A4CECC
:103E9000812F0E94DC14A0CE0031BFE51B0709F47E
:103EA000F6CA0131EFE51E0709F4FECA0D312CE513
:103EB000120709F059C00E94A118F2CA0031FFE5AB
:103EC0001F0709F4E8CA01312FE5120709F4EECA09
:103ED000011547E5140708F40ECB011558E5150741
:103EE00008F001CB680187E5D81A61EB74E08C2DEE
:103EF0000E94780D892B29F58DE08C9DF0018D9D18
:103F0000F00D1124E554FB4F8281813009F0D0CAB5
:103F10008091B1049091B204892B99F08091B304FF
:103F20009091B404892B69F08091B5049091B60406
:103F30002091B7043091B804822B932B892B09F47C
:103F4000C1CA0A32BCE51B0709F0E3CAF701828146
:103F5000882309F41BCB1092BC0664E070E088E172
:103F600091E00E94F0179CCA0E315CE5150709F03C
:103F7000C2CACCCAB0E0A0E0E0ECFFE10C947B3117
:103F80008091F103807F31F48091EE03C09135047C
:103F9000811107C0CDB7DEB7E8E00C9497312196C8
:103FA000C7708091F4038C17A9F3F090EC03E090B4
:103FB000ED03C090EF03D090F003A6016E2D8F2D7E
:103FC0000E943C06D0E08111EACF8E0183E0000F11
:103FD000111F8A95E1F7F801EB50FC4F81818E119A
:103FE000DECF80818F11DBCF82818111D8CFE3803A
:103FF000F480EC18FD0860E08CEE93E00E94200D48
:104000006CEE73E00E948C0DE816F90640F6809184
:10401000F1038F7080618093F103F801E650FC4F4B
:1040200080818F70806180838CEE93E00E945B19A9
:104030000E94A709AFCFA5E1B0E0E1E2F0E20C9465
:1040400074318C0185E0F801DE01519601900D92EA
:104050008A95E1F7D8015C9011966C9011971296B1
:10406000EC9012971396CD90DC9060E08CEE93E08C
:104070000E94200D8CEEA82E83E0B82E8090EF03D6
:104080009090F003A4016091ED038091EC030E94F5
:104090003C068111A8C1F090EE03F601E819F90978
:1040A0004F0160E0FF2009F44BC1C5010E94200DC3
:1040B000B5010E948C0D7090F1038816990608F0E6
:1040C000F2C04091EF035091F003B090EC03A09048
:1040D000ED03872D807F6A2D09F08CC08B2D0E9407
:1040E0003C06FE2C811127C0D80111968C911197A6
:1040F0008A1121C08C918B111EC02091F203309146
:10410000F30316968D919C9128173907A1F4E110BD
:1041100012C0872D8F7080618093F1038CEE93E045
:104120000E945B198091F103F80185838F2D6596BC
:10413000EFE00C949031A601662D852D0E943C067F
:10414000D82E81E08E25D11080E080FF18C04E2D42
:10415000662D852D0E948709882389F08091B505F9
:1041600080FF0DC08CEE93E00E945B1988E0ECEEBE
:10417000F3E0DF011D928A95E9F7F12CD7CF81E0BA
:104180008E25D11080E0B82FB170CB2E80FF29C0D2
:104190004E2D662D852D0E948709D82E811121C0B4
:1041A000598A6A8A89899A890E94D30C292F229573
:1041B0002F70223050F0243078F49F7051F0F801C5
:1041C0009581907F31F4FD2CB1CF9F7011F0882341
:1041D000D1F3805E8830B8F3C8010E945B19DC2CF3
:1041E000F2CFEE2009F4A2CF8091F1038160809399
:1041F000F103C3CF8B2D0E943C06811124C0D8014E
:1042000011968C9111978A111EC08C918B111BC035
:104210002091F2033091F30316968D919C9117979C
:104220002817390781F4E1100EC015967C92C80159
:104230000E945B1988E0F801ACEEB3E001900D92AA
:104240008A95E1F773CFC8010E94E00C882339F109
:10425000EE2029F18091F1038032A0F02091EC034F
:104260003091ED033A8729871B86DD86CC868E87C1
:104270008091F2039091F303988B8F87CE0109967A
:104280000E945B1988E0F801ACEEB3E001900D925A
:104290008A95E1F70E94BA1FFF24F39447CFC80123
:1042A0000E945B19F9CF872D807F09F45BCF909036
:1042B000EC038090ED034091EF035091F003682DE3
:1042C000892D0E943C0681111CC0F8018181881152
:1042D00018C08081891115C02091F2033091F30339
:1042E000868197812817390761F4E1100AC0758229
:1042F000C8010E945B1988E0D5011D928A95E9F7F3
:1043000015CFC8010E94E00C882349F2EE2039F253
:104310008091F103803208F4B5CF2091EC03309105
:10432000ED033A8329831B82DD82CC828E838091C8
:10433000F2039091F30398878F83CE010196A0CF6B
:104340008CEE93E00E94200D6CEE73E00E948C0DC9
:104350008816990680F6FE2CEE2009F4A0CFE09096
:10436000EC03D090ED034091EF035091F0036D2DDD
:104370008E2D0E943C06811128C0F80181818D118B
:1043800024C080818E1121C02091F2033091F3036B
:104390008681978128173907C1F48091B50582FD80
:1043A00049CF9091F10390FD45CF907F09F442CF22
:1043B0008091F1038583903F09F439CF982F907F46
:1043C000905F8F70892B858332CFC8010E94E00CEB
:1043D000811158CF8091F10381608093F103C8016E
:1043E0000E945B19A3CEEE2009F459CFC8010E94A8
:1043F000E00CF82E882309F452CF88E0F801ACEEE7
:10440000B3E001900D928A95E1F78091EC039091D1
:10441000ED030E94D30C0E94BA1F88CEA0E1B0E049
:10442000E4E1F2E20C94813129873A874B875C877B
:104430006D877E878F87988BCE0109960E941B20FF
:1044400081112FC088E0FE013996DE01119601909E
:104450000D928A95E1F74C855D856A8589850E9474
:104460003C0681111EC0A091F403B0E0CD0101967D
:10447000877099272091350428171906E1F093E0F9
:10448000AA0FBB1F9A95E1F7AB50BC4F98E0FE0115
:10449000319601900D929A95E1F78093F4030E9472
:1044A000A709809135049091F403891312C0609696
:1044B000E2E00C949D310E94980F1092F403109248
:1044C000350488E0ECEEF3E0DF011D928A95E9F710
:1044D000E8CFB8E08B9FC00111248B509C4F0E9405
:1044E0001B20882321F38091350490E0019687708A
:1044F000992780933504D5CFEF92FF920F931F93A6
:10450000CF93DF938091C305882361F0C091C205EA
:104510008CE0F82E8091C305C81748F01092C305AF
:104520001092C205CDB7DEB7E6E00C949931EE24C7
:10453000E394EC0EE092C2050C2F10E0CF9DE00159
:104540001124CC53DA4F4B815C81698188810E94B0
:104550003C0681111DC08E819F81892B21F48885A5
:104560009985019651F4288139814A815B816C815A
:104570007D818E819F810E940E22F09EF001F19E2E
:10458000F00D1124EC53FA4F148213821092AA06F4
:10459000CE2DC0CF109267061092660610922503AA
:1045A00080916506809364060E9475060E947C22B5
:1045B0000895B0E0A0E0EFEDF2E20C947231C0910A
:1045C000640697E0892E01E010E02CE0322E3EEFE9
:1045D000932E44244394809165068C1309C00E9455
:1045E0007C220E947506CDB7DEB7E1E10C948E31D6
:1045F000D0E0FE01EE0FFF1FE45AF94F8081918158
:10460000889ED001899EB00D1124AC5DB94F1496DF
:104610002C911497211158C05090C305E4ECF5E09B
:1046200030E020E0712C5D01251508F04BC0E284DC
:10463000F384D501CD90DC906FEF7FEF612C462D98
:1046400050E0DA01AA0FBB1FAC0DBD1D0D90BC914F
:10465000A02D109731F0EA16FB0609F4BA01639415
:10466000EECF6F3F7607A9F1D80102C0AA0FBB1F9A
:104670006A95E2F77A2AB801062C02C0660F771F06
:104680000A94E2F7AB014150510974161506F9F48A
:10469000329EF001339EF00D1124EC53FA4F889EA8
:1046A000D001899EB00D1124AC5DB94F12962D91A9
:1046B0003C911397378326839082918291878087DC
:1046C00015964C920E9447062196C37084CF14829F
:1046D00013822F5F3F4F3C96A7CFA9E1B0E0E3E7FD
:1046E000F3E20C947131942F498B252F5A8B6B8BED
:1046F0007C8B8D8B4C895D89622F892F0E943C06B3
:10470000811109C08091D8039091D90301969093AB
:10471000D9038093D8038B8981111092AA061D8634
:104720001E861F86188A85E0FE017196DE011996A5
:1047300001900D928A95E1F74C855D856A858985A2
:104740000E943C06811111C061E0CE0109960E94D1
:10475000200D6C018B8527EFC2162CE5D20681F463
:10476000882321F181E08093250329853A854B85B3
:104770005C856D857E858F8598890E940E22C6C0D6
:1047800038EFC3163CE5D30629F4882379F00E945C
:10479000CA22EBCF49EFC4164CE5D40639F488237E
:1047A00029F0809125038111F2CFDCCF04E216E0DD
:1047B000512CB12CA12C22242394312C2EEF422EEB
:1047C000F8014081518188248A94982C20E0822F1E
:1047D00090E0FC01EE0FFF1FE40FF51F6081718177
:1047E0006115710531F0C616D70609F44C012F5F2B
:1047F000EECFF12CFFEF8F169F0609F449C0F801A8
:104800004481F09025038F2D411180E0F82FF17045
:10481000FF2EF801E58086819B85992309F4F8C075
:10482000FF2009F4F5C06090AE057090AF05E1106F
:1048300013C0A101082C01C0440F0A94EAF7842B8D
:1048400086838091C0059091C1058615970520F457
:104850007092C1056092C005C10102C0880F991F06
:104860002A95E2F70197F80126812817190681F4A5
:104870008091660690916706009709F44BC00E94EC
:10488000B2056816790608F045C021E0F8012483D6
:104890005F28FFEFAF1ABF0A095F1F4F28E0A2167B
:1048A000B10409F08DCF8B85882309F40DC1552003
:1048B00009F40AC10E94CD059093670680936606AD
:1048C0008091C305883010F591E0980F9093C3054F
:1048D00098E0FE013996DE01119601900D929A95AD
:1048E000E1F73CE0839FC00111248C539A4F28E0EC
:1048F000FE013196DC0101900D922A95E1F72FEF30
:104900003FEFFC0131872087D386C2866996E2E1BA
:104910000C948D318091640650916506982FF0E0DB
:10492000E0E0851314C0909364060E171F0709F486
:10493000AFCF90E0FC01EE0FFF1FE45AF94FB182B8
:10494000A08201968370992780936506A1CF682E77
:10495000712CF301EE0FFF1FE45AF94F20813181D2
:1049600047E0429FD001439FB00D1124AC5DB94F89
:104970006D917C911197798F688F40E020E030E055
:10498000E32FF0E0EE0FFF1F688D798DE60FF71F24
:104990008080918081149104E1F0F8010190F08110
:1049A000E02DFF8BEE8B20E005C08616970609F4FC
:1049B0004F2D2F5FE22FF0E0EE0FFF1F6E897F89F2
:1049C000E60FF71F608171816115710571F73F5F17
:1049D000D7CF4423D1F0F801231708F0FD0121E0DF
:1049E00024830E171F0721F490936406F42E50CFF2
:1049F000981305C0AE17BF0711F49F5F9370930122
:104A00002F5F3F4F822F83708CCFF0E0E0E0F7CF35
:104A100090E0E11020C0B10102C0660F771F2A9517
:104A2000E2F79B01215031092817390731F444235B
:104A300009F448C0C5010E944706C101082C01C005
:104A4000880F0A94EAF7982F9095F80186818923B8
:104A50008683FE2C1DCF9C01082C02C0359527951E
:104A60000A94E2F7A90141705527BC016150710910
:104A700086239723892B11F5452B01F1F8018281BB
:104A80009381892BC1F01B821C821D821E82498268
:104A90004A820E94CD058160582F9D838C83F80146
:104AA000828193818F83988729813A814B816D819F
:104AB0007E810E940E22F8011582BFCFF22FF17085
:104AC000EF2EBBCFEF2CB9CF909164068091650695
:104AD000981731F00E94D922552009F446CE16CFFE
:104AE0000E947C2210926706109266060E9475064C
:104AF000F3CFA5E0B0E0EFE7F5E20C9481319093BD
:104B0000740580937305811520E2920730F40E94AA
:104B100026142596E2E00C949D3180EF89838A83E8
:104B20001B820E94CD058160782F9D838C834981F3
:104B30005A816B818D810E946D23EBCF0F931F9360
:104B4000CF93DF938C01EB0161EB74E08C2F0E941B
:104B5000780D892BA1F48091B6059091B7050E943C
:104B6000450BDD27C755DB4F8881F801128218827B
:104B70008330F1F048F4813059F0823081F0DF91D8
:104B8000CF911F910F9108958430B9F08530B9F716
:104B90008091B1049091B204009789F306C080918E
:104BA000B3049091B404009799F30E947925E7CF5C
:104BB0008091B5049091B604F6CF8091B70490919E
:104BC000B804009791F72091B1043091B20480911C
:104BD000B3049091B40421153105F1F2009729F73F
:104BE000C901E3CFA5E0B0E0E8EFF5E20C94813134
:104BF0009093740580937305811520E2920730F439
:104C00000E949F152596E2E00C949D3180EF8983E8
:104C10008A8381E08B830E94CD058160782F9D83FC
:104C20008C8349815A816B818D810E946D23EACFEB
:104C3000CF93DF93EC010E94F2258091B60590910D
:104C4000B7050E94450BCE010E947925DF91CF91D7
:104C500008950F931F93CF93DF938C01862F61EB01
:104C600074E00E94780D892BB1F4C091B104D09109
:104C7000B204209781F0F8018281833051F4CE0193
:104C80000E941826CE010E941826CE010E941826E6
:104C900002C08430D0F7DF91CF911F910F9108951A
:104CA0000F931F93CF93DF938C01EB0161EB74E0C3
:104CB0008C2F0E94780D892B09F05CC0FE01FF2724
:104CC000D80112968C911297E755FB4F8130B9F4B9
:104CD00014969C9192FF02C080830AC090FFFCCF83
:104CE00082E080838091B3049091B4040097B9F47A
:104CF0008091B1049091B2040097E1F110C082302C
:104D0000B9F514968C9182FD28C080FD0BC083E01C
:104D100080838091B5049091B604009701F10E94C0
:104D2000F22528C084E080838091B7049091B80474
:104D30000097A9F78091B1049091B2040097F9F01F
:104D40000E9418268091B3049091B404009739F71B
:104D50008091B1049091B204E2CF85E0808380918C
:104D6000B1049091B204009729F00E941826F0CF68
:104D700086E08083DF91CF911F910F9108958091FC
:104D8000B3049091B404B8CF1F920F920FB60F9254
:104D900011242F933F934F935F936F937F938F9340
:104DA0009F93AF93BF93CF93DF93EF93FF93D091F4
:104DB000E900DF708091EC00C82FC17080FDC0E871
:104DC0001092E9008091F000877F8093F000789442
:104DD0000E94AE0F1092E9008091F00088608093ED
:104DE000F000CD2BCF70C093E900FF91EF91DF91E0
:104DF000CF91BF91AF919F918F917F916F915F9173
:104E00004F913F912F910F900FBE0F901F901895CB
:104E10001F920F920FB60F9211242F933F934F932F
:104E20005F936F937F938F939F93AF93BF93EF9312
:104E3000FF938091E10082FF09C08091E20082FF30
:104E400005C08091E1008B7F8093E1008091DA00C2
:104E500080FF24C08091D80080FF20C08091DA00BC
:104E60008E7F8093DA008091D90080FF9DC080E121
:104E700089BD82E189BD09B400FEFDCF81E0809348
:104E80009F0680917A06811109C00E9429040E9420
:104E9000F4048091E20084608093E2008091E1005C
:104EA00080FF17C08091E20080FF13C08091E20074
:104EB0008E7F8093E2008091E20080618093E20027
:104EC0008091D80080628093D80019BC85E08093DF
:104ED0009F068091E10084FF2BC08091E20084FF57
:104EE00027C080E189BD82E189BD89B5982F917085
:104EF00080FFFBCF8091D8008F7D8093D800809178
:104F0000E1008F7E8093E1008091E2008F7E8093AC
:104F1000E2008091E20081608093E2008091A0062F
:104F2000882309F447C084E080939F0680919F0600
:104F30008091E10083FF27C08091E20083FF23C0BE
:104F40008091E100877F8093E10082E080939F065B
:104F50001092A0068091E1008E7F8093E100809105
:104F6000E2008E7F8093E2008091E2008061809376
:104F7000E20042E060E080E00E94C2048091F00024
:104F800088608093F000FF91EF91BF91AF919F9166
:104F90008F917F916F915F914F913F912F910F90E2
:104FA0000FBE0F901F90189519BC10929F0610927B
:104FB0007A0674CF8091E30087FD93E090939F067B
:104FC000B5CF78941F921FB61F9211248F939F9391
:104FD000AF93BF938091710690917206A091730672
:104FE000B09174060196A11DB11D80937106909336
:104FF0007206A0937306B0937406BF91AF919F9110
:105000008F911F901FBE1F9018951F921FB61F9261
:1050100011248F939F93AF93BF938091700681115A
:1050200013C08091710690917206A0917306B091A1
:1050300074064196A11DB11D80937106909372066E
:10504000A0937306B0937406BF91AF919F918F9117
:105050001F901FBE1F9018951F920F920FB60F92B0
:1050600011247F928F929F92AF92BF92CF92DF9244
:10507000EF92FF920F931F932F933F934F935F9362
:105080006F937F938F939F93AF93BF93CF93DF9350
:10509000EF93FF938091A3049091A404A091A504A1
:1050A000B091A6040196A11DB11D8093A304909315
:1050B000A404A093A504B093A6046091A3047091E6
:1050C000A4048091A5049091A6040E9434336B013E
:1050D0007C0120E030E040E85CE360919F04709147
:1050E000A0048091A1049091A2040E94E6339B0148
:1050F000AC01C701B6010E948E3287FDB2C010928A
:10510000A3041092A4041092A5041092A604709017
:10511000B7068091B806811103C0772009F497C0C3
:105120000E94CD056C0171101DC0712C8091B806D4
:10513000882379F08091BB068111782ECDEBD6E0E3
:1051400010E000E08091FD068017110611F00CF0D0
:1051500007C180919E04882309F479C010929E04AF
:10516000782E75C00091AD061091AE06C8010E9460
:10517000B205C091AB06D091AC068C179D07A8F282
:10518000C8010E94B2057C01EC1AFD0AD092AE065D
:10519000C092AD068090AF069090B006E4012196D3
:1051A000D093B006C093AF060E94CD05C090B20662
:1051B000D090B306CC15DD0548F08091B106882368
:1051C00009F442C01092B0061092AF060091B406E6
:1051D0001091B506C091AF06D091B0068091B60689
:1051E0005E0163E0AA0CBB1C6A95E1F7811157C010
:1051F000F40153E0EE0FFF1F5A95E1F7E00FF11FA6
:10520000D801AA0DBB1D2D913D914D915C916081FE
:105210007181828193810E948E32811140C081E030
:105220008093B6064FE050E060E070E0CB010E9452
:1052300041179092B0068092AF068FE090E0909375
:10524000AC068093AB0672CF0E948A07712C8091C6
:10525000B80681119DC08091B706811199C00E9446
:105260002E07FF91EF91DF91CF91BF91AF919F9169
:105270008F917F916F915F914F913F912F911F91EE
:105280000F91FF90EF90DF90CF90BF90AF909F90E5
:105290008F907F900F900FBE0F901F9018951092D7
:1052A000B606F801EA0DFB1D648175818681978140
:1052B0000E9405339B01A0E6BAEE0E94EB3120E08C
:1052C0003EE140E050E00E94BC3181E0C81AD108C4
:1052D000812C4EE1942EA12CB12C2E153F05F0F01F
:1052E000D093B006C093AF06E216F306A8F5C90145
:1052F0008E199F097C0183E0CC0FDD1F8A95E1F7B1
:10530000C00FD11F688179818A819B81A7010E948A
:105310004117F092AC06E092AB0608CFCC15DD0544
:10532000F8F6E21AF30A2196FE0123E0EE0FFF1FC2
:105330002A95E1F7E00FF11F6481758186819781DD
:105340000E9405339B01A0E6BAEE0E94EB31A50155
:1053500094010E94BC31C1CFEE24E394F12CCBCF59
:10536000EE80FF80C70101978E3F9F4F68F48881D0
:1053700099810E94B2058E159F0530F06A817B816C
:105380008C819D810E94E6180F5F1F4F2896DACE10
:10539000772009F466CF0E94FC030E94390761CF91
:1053A000CDB7DEB7C055D1090FB6F894DEBF0FBE3A
:1053B000CDBF85B7806885BF85B7806885BF84B756
:1053C000877F84BF0FB6F894A895809160008861AC
:1053D00080936000109260000FBE80E890E00FB6EE
:1053E000F89480936100909361000FBE87EB97E083
:1053F0009093B5038093B4030E9409070E94AA0DFD
:105400000E94EC0B0E9429040E94F4048091E200A7
:1054100084608093E200789480919F068823A1F0B5
:105420001091E9001F709091EC00892F817090FD20
:1054300080E8182B1092E9008091E80083FD0E941B
:10544000AE0F1F701093E90082E084BD93E095BD1C
:105450009AEF97BD80936E000E942E0D811102C0BD
:105460000E94461386E90E94B90784E90E94B907A1
:1054700084E30E94B90787E90E94B90707E813E0AF
:1054800081E9E82E83E0F82ED8018D918D018F3FC0
:1054900011F00E94B907E016F106B1F788E0E6E9DD
:1054A000F4E0DF01282F1D922A95E9F7EAE5F4E000
:1054B000DF011D928A95E9F70E948416811102C0CE
:1054C0000E94901682E090E00E944432809364042F
:1054D00084E090E00E944432182F82E290E00E9423
:1054E0004432982F812F90937606809375060E9400
:1054F0000B0EBFEFE6E7F1E0B150E040F040E1F71E
:1055000000C000000E940B0E8091960480FF08C02E
:105510006FEF7FEF90E080E00E9470320E94210BDD
:1055200083E090E00E9444320E94930F8091A9068C
:105530000E949B0A0E94FB1682E08093900443EA3B
:1055400053E001EAA02E03E0B02E85019A0161E04C
:1055500070E0D9018D919D01E82FE295EF70F0E0A8
:10556000D1A08F707B0101C0EE0C8A95EAF79E2DC9
:1055700090959D2191A382A18E2982A3F80181910A
:105580008F01E82FE295EF70F0E0D1A08F707B01E2
:1055900001C0EE0C8A95EAF79E2D90959D2191A36E
:1055A00082A18E2982A3A55AB34099F68FE891E093
:1055B0000197F1F700C000001091900461E974E0D8
:1055C000FB018E2F861B811708F47DC089E192E0D4
:1055D00090936D0680936C06B8E14B2E512C1EE91A
:1055E000612E14E0712E80919F06A0E4FA2E00E156
:1055F00012E1853009F4C7C00E940B0EE5E6AE2E1D
:10560000E4E0BE2EF6E98F2EF4E09F2E4DE654E046
:10561000D401F501219131918D919D914E175F0734
:1056200009F4BBC028173907A9F3312CF401019103
:1056300011914F01D501CD90DD905D01C016D106CD
:10564000D9F1C026D126212CEE24E394F12CC601F9
:105650008E219F21892B31F12D962FAE2D972E96DD
:105660003FAE2E9721E0C8018E219F21892B09F49E
:1056700020E02F962FAF2F970E94CD058160782FC5
:1056800061969FAF8EAF61972D964FAD2D972E9659
:105690005FAD2E972F966FAD2F9761968FAD619767
:1056A0000E946D232394EE0CFF1CBAE02B12CFCF87
:1056B000F5013297118300833394E4E03E12B6CFB4
:1056C0000E94C1059CC0DA012D91AD01822F829507
:1056D0008F7090E0DC0190968C9190E02F7002C06A
:1056E000959587952A95E2F78170D5019D915D0189
:1056F000292F22952F7030E0D90190962C9130E01F
:105700009F7002C0359527959A95E2F790E020FDAD
:1057100092E0892B819355CF80919F06843019F1B7
:105720000E948A07109270060FB6F894A8954092CE
:1057300060000FBEF092600083B7817F846083BFFA
:1057400083B7816083BF7894889583B78E7F83BF4A
:105750000FB6F894A89580916000886180936000EE
:10576000109260000FBE80919E06882361F00E9417
:105770000B0EE6E9F4E081919191892B09F064C563
:105780006E167F06C1F780919F06853009F4C4CF5D
:105790000E94980F0E942F062FCF2817390709F073
:1057A00044CF0E94CD058C018091620490916304E6
:1057B0000817190721F18FEF28968FAF28972996A0
:1057C0008FAF29972A961FAE2A970E94CD05816038
:1057D000782F2C969FAF8EAF2C9728964FAD289799
:1057E00029965FAD29972A966FAD2A972C968FAD93
:1057F0002C970E946D2310936304009362048091A0
:1058000081048823F9F080917F04909180040097AF
:1058100081F40E94CD059093800480937F04809151
:105820007E04282F30E0882309F48AC0C90101973B
:105830008BC00E94B20520912502309126022817C4
:10584000390738F3009168061091690601151105B2
:1058500029F180918204909183040E94B2057C0119
:10586000BE01655D7F4F88E0DB011D928A95E9F7F7
:10587000C8010E948C0D8E159F0580F480916806EA
:10588000BDE08B9FC0011124FC01E154FB4F20813E
:1058900022FD04C085549B4F0E940F0F8091250369
:1058A000882301F180916606909167060097D1F0F8
:1058B0000E94B2052091C0053091C1052817390713
:1058C00088F49091640680916506981709F45FC08A
:1058D0000E94D9221092C1051092C005109267064D
:1058E000109266068091B30580FF1EC0809124034C
:1058F00082FF1AC00E94CD052091BC053091BD05E4
:10590000AC01421B530B2091220330912303421719
:10591000530750F024E834E041E0BC018091BE051B
:105920009091BF050E94CC1510E000E034E0C32E3A
:10593000D12C4DEF942E882483945CEF352EF6C045
:1059400080917D048150990B4091A704442399F0E4
:1059500023593B4FD9011C9183599B4FFC018081F6
:105960000E94EE0D0E94E6188091A704882319F08A
:10597000812F0E94DF1880917E0490E00196609153
:105980007D0470E00E94A83180937E045BCF0E946A
:105990007C2210926706109266060E947506A2CFBE
:1059A000A12EB12CF501ED55FC4F8081E82FE29539
:1059B000EF70F0E0E0A1F0E08F7002C0F595E795A0
:1059C0008A95E2F7E170D501AF55BC4F2C91A22F1B
:1059D000A295AF70B0E090968C9190E02F7002C0CD
:1059E000959587952A95E2F780FDEBC080E08E2B98
:1059F000D501AF56BB4FEC919E2F9370891709F4D8
:105A000094C0EE0FEE0FE82BEC93EF70F0E0EF5642
:105A1000FC4F950122573B4F79018081D9019C9120
:105A2000890F8C9320E084300CF43FC0F501E457DB
:105A3000FB4F80818F5F80830E94CD051DAF3EAEFE
:105A40008FAE8160782F22969FAF8EAF2297412F25
:105A50005CEF61E022968FAD22970E946D23EFE309
:105A6000FFE13197F1F700C000000E94CD052396B9
:105A70001FAF239724963FAE249725961FAE2597F8
:105A80008160782F27969FAF8EAF2797412F5CEFCD
:105A900060E027968FAD27970E946D238FE39FE1EB
:105AA0000197F1F700C0000021E0D7018C918D3FF4
:105AB0008CF5F501E457FB4F8081815080830E9473
:105AC000CD051BAB9CAA8DAA8160782F9FAB8EABB6
:105AD000412F5DEF61E08FA90E946D23EFE3FFE1AD
